:020000040800F2
:10000000F0C6002065010008C33000088B15000809
:10001000C13000080B040008093B00080000000084
:10002000000000000000000000000000453500084E
:100030000D04000800000000C1310008413600082E
:100040007F0100087F0100087F0100087F01000890
:100050007F0100087F0100087F0100087F01000880
:100060007F0100087F0100087F0100087F01000870
:100070007F0100087F0100087F0100087F01000860
:100080007F0100087F0100087F0100087F01000850
:100090007F0100087F0100087F0100087F01000840
:1000A0007F0100087F0100087F0100087F01000830
:1000B0007F0100087F0100087F0100087F01000820
:1000C0007F0100087F0100087F0100087F01000810
:1000D0007F0100087F0100087F0100087F01000800
:1000E000311000087F0100087F01000800000000B7
:1000F0000000000000000000000000000000000000
:1001000000000000000000007F0100087F010008DF
:100110007F0100087F0100087F0100087F010008BF
:100120007F0100087F0100087F0100087F010008AF
:100130007F010008B10A00087F0100087F01000864
:100140007F0100087F0100087F0100087F0100088F
:10015000DFF80CD000F074F8004800475150000858
:10016000F0C600200648804706480047FEE7FEE745
:10017000FEE7FEE7FEE7FEE7FEE7FEE7FEE7FEE757
:10018000453600085101000840EA01039B0703D0EF
:1001900009E008C9121F08C0042AFAD203E011F8C6
:1001A000013B00F8013B521EF9D27047D2B201E088
:1001B00000F8012B491EFBD270470022F6E710B56C
:1001C00013460A4604461946FFF7F0FF204610BDC5
:1001D000421C10F8011B0029FBD1801A70472DE941
:1001E000F05F0546002092469B46884606468146BB
:1001F00040241BE0284641464746224600F041F88D
:1002000053465A46C01A914110D311461846224609
:1002100000F028F82D1A67EB01084F46224601200E
:10022000002100F01FF817EB00094E41201EA4F139
:100230000104DFDC484631462A464346BDE8F09FCC
:10024000064C074D06E0E06840F0010394E8070023
:1002500098471034AC42F6D3FFF77EFF989300081E
:10026000B8930008202A04DB203A00FA02F10020AB
:1002700070479140C2F1200320FA03F319439040E4
:100280007047202A04DB203A21FA02F0002170474F
:1002900021FA02F3D040C2F12002914008431946EE
:1002A0007047000030B597B02C2224A16846FFF7B4
:1002B0006BFF2C210BA8FFF780FF01F0DFFB292249
:1002C0000021684601F08EFB292200210BA801F0D5
:1002D0000BFB29220BA9684600F088F80546694601
:1002E00021A003F013FC29220621684601F07AFBC5
:1002F000292206210BA801F0F7FA0BA925A003F08B
:1003000005FC29220BA9684600F070F810EA0504E4
:1003100012D02B4803F0FAFB2AA003F0F7FB314D73
:10032000284601F0CBFA0021284601F084FA01F0BA
:1003300047FC17B0204630BD2B48EBE75757572EE8
:1003400041524D4A495348552E434F4D2020493282
:100350004320454550524F4D2041543234433032B2
:1003600020546573740000000D0A0A204932435F6F
:1003700045455F42756666657257726974652045CA
:1003800045505F54785F4275666665723A205B251A
:10039000735D00000D0A204932435F45455F427599
:1003A000666665725265616420204545505F5278EB
:1003B0005F4275666665723A205B25735D000000DA
:1003C000A09100080D0A204932435F454550524F25
:1003D0004D20544553542046696E69736865642105
:1003E0002121000000540040EC91000810B507E006
:1003F00003780C78A34201D0002010BD401C491C9A
:10040000521E92B2F4D2012010BDFEE7704701B532
:10041000009801E0401E00900028FBD108BD0000BC
:1004200071B5A94C8BB00B982169401AFA286BD38F
:100430000B982061A54DE1686868884264D0010E80
:10044000E0608DF80810010C8DF80910010A8DF894
:100450000A108DF80B009DF808109DF809009DF812
:100460000A30CDE900019DF80B2099A103A803F003
:100470005DFB95F82E0000071BD501F0B9FD8079D2
:1004800098A1C0EBC000C0B201F0B8FC01F0B0FD13
:1004900080799AA1C006000E01F0B0FC01F0A8FD21
:1004A000807903A900EBC000C0B201F0A7FC994815
:1004B00033E001F09DFD807997A1C006000E01F0A8
:1004C0009DFC01F095FD807903A900EBC000C0B24E
:1004D00001F094FC40F6B830FFF799FF9448FFF71D
:1004E00096FF08A9002000F0B5FA9DF823009DF8BA
:1004F00025209DF824108DE807009DF822309DF8F6
:1005000021209DF8201000E0DCE08AA003F0FEFA34
:1005100003A994A003F0FAFA9948FFF778FF0020A6
:1005200001F002FC002001F0FDFD4FF2DE7001F051
:1005300037FE01F05DFD807992A1C006000E01F04A
:100540005DFC01F055FD807900EBC000C0B201F008
:1005500071FC1121002000F075FC86B216F4405F9A
:100560000AD08EA003F0D2FA01F042FD807990A16A
:1005700000EB8000C0B209E093A003F0C7FA01F0DD
:1005800037FD807996A100EB8000C0B201F036FC07
:1005900016F4204F0BD098A003F0B8FA01F028FD14
:1005A00080799CA100EB40004006000E0AE09FA06D
:1005B00003F0ACFA01F01CFD8079A3A100EB400030
:1005C0004006000E01F01AFCE068010E8DF80810DC
:1005D000010C8DF80910010A8DF80A108DF80B0036
:1005E0009DF808109DF809009DF80A30CDE900013A
:1005F0009DF80B209AA103A803F098FA01F0F8FCEB
:10060000002001F017FC01F0F3FC807903A94006FB
:10061000000E01F0F3FB08A9002000F01BFA9DF882
:1006200023009DF825209DF824108DE807009DF8F3
:1006300022309DF821209DF820103EA003F066FA9C
:1006400003AE8CA0F11C03F061FA207840B101F0F8
:10065000CFFC80798FA101F0D1FB05F0D1F807E044
:1006600001F0C6FC807991A101F0C8FB03F0E8FB22
:10067000E868E060010E8DF80810010C8DF8091093
:10068000010A8DF80A108DF80B009DF808109DF8EE
:1006900009009DF80A30CDE900019DF80B2089A1E1
:1006A00003A803F043FAF11C8BA003F02FFA01F02A
:1006B0009FFC807903A900EB4000C0B201F09EFBD3
:1006C0006868E0600CB070BD0C00002028010020BC
:1006D00020202025642E25642E25642E25642020CC
:1006E00020200000495020616464726573732061AA
:1006F000737369676E6564200000000020206279D2
:100700002061204448435020736572766572202032
:1007100000000000009F240020205374617469636E
:1007200020495020616464726573732020200000AA
:10073000408AF7010A0D20596F7572204D41432000
:1007400061726520636F6E666967757265643A20D1
:1007500025583A25583A25583A25583A25583A25E1
:10076000580000000A0D20537461746963204950D9
:1007700020616464726573733A2025730000000081
:10078000C027090020207777772E61726D6A697320
:1007900068752E636F6D2020000000000A0D3D3D3E
:1007A0003E4554485F53706565645F31304D2100AC
:1007B0002020204554485F53706565645F31304D9B
:1007C00020202020000000000A0D3D3D3E455448F9
:1007D0005F53706565645F3130304D21000000006B
:1007E0002020204554485F53706565645F31303088
:1007F0004D202020000000000A0D3D3D3E4554489C
:100800005F4D6F64655F46756C6C4475706C6578A0
:1008100021000000204554485F4D6F64655F4675B8
:100820006C6C4475706C6578000000000A0D3D3DED
:100830003E4554485F4D6F64655F48616C66447522
:10084000706C657821000000204554485F4D6F644E
:10085000655F48616C664475706C657800000000E7
:1008600069703A2025642E25642E25642E25642087
:10087000000000000A0D20596F7572204970206138
:10088000726520636F6E666967757265643A2025CC
:10089000730A0D002020596F752061726520612058
:1008A0007365727665722020000000002020596F69
:1008B0007520617265206120636C69656E7420200B
:1008C0000000000067773A2025642E25642E2564F9
:1008D0002E2564202000000020596F757220677754
:1008E0002061726520636F6E666967757265643A30
:1008F0002025730A0D00000001494861704700007F
:1009000000900240044A0029D16901D0014300E06F
:100910008143D161704700000090024005490028E2
:10092000886902D040F0020001E020F002008861F6
:100930007047000000900240F0B5104C00234FF0CB
:10094000004744F2F05C561E606012E000EB0314B6
:10095000C3EB431505EB831501EB05152760C4E9CF
:1009600001C5B34203D204F11005E56000E0E06088
:100970005B1C9342EAD30249C860F0BD38000020F6
:1009800000900240426811B122F0004101E042F0C3
:10099000004141607047000005490028886902D085
:1009A00040F4005001E020F40050886170470000DE
:1009B00000900240F0B50F4C00234FF48016551EF6
:1009C000206011E0C3EB431700EB031407EB831720
:1009D00001EB0717A7602660AB4203D204F11007B2
:1009E000E76000E0E0605B1C9342EBD302490861E2
:1009F000F0BD0000380000200090024002680A4369
:100A00000260704710B501218C03204602F0E6FB1E
:100A10002046BDE81040002102F0E0BB01B581B0E6
:100A200001980090002801D0401EFAE70CBD00009C
:100A30000248816941F48011816170470090024051
:100A40000148006880687047380000200068C0F3E3
:100A50000D407047074A0244106C030A4B7108713D
:100A6000506C020ECA70020C8A70020A4A7008703A
:100A70007047000000800240074900204A68116862
:100A800011F0802F06D1CB0504D5890502D510467B
:100A9000FFF7DCBF7047000038000020034900204A
:100AA0000968C90700D0012070470000009002408B
:100AB00010B501E002F0E6FAFFF7DEFF0028F9D1F9
:100AC0004020FFF719FFBDE810404FF48030FFF7DA
:100AD00013BF00002DE9FC4100260F460446009696
:100AE000019600F0ADFB4FF400420021384600F0C3
:100AF00075FA002835D08148FFF790FF206800285C
:100B000079D00021384600F09DF9024600217CA0F2
:100B100002F0FCFF1021384600F094F90246102143
:100B200077A002F0F3FF7E4D01980121401C019057
:100B3000384600F087F9400702D40198A842F3D361
:100B40000121384600F07EF9024601216CA002F036
:100B5000DDFF0198A84206D1724802F0D7FF724823
:100B600024E072A022E04FF4405200213846019662
:100B700000F034FA08B9724818E001980121401CCD
:100B80000190384600F05EF9800602D40198A84230
:100B9000F3D30121384600F055F90246012158A04F
:100BA00002F0B4FF0198A84205D1664802F0AEFFFA
:100BB0000020BDE8FC8111213846019600F042F981
:100BC000054610F4204F04D04FF4006020625EA070
:100BD00001E067A0266202F099FF15F4405F03D0A0
:100BE0006DA0666104E006E04FF48040606173A090
:100BF00002F08CFF0FE0206A6169C00840EA5100F2
:100C000082B20021384600F0E9F90028D1D06FF017
:100C10007F40FFF703FF7248026872490A40D4E937
:100C200001131943E36854F8105F2B4319436368B9
:100C30001943A3681943E368194323691943636996
:100C40001943A3691943E3691943236A1943636A82
:100C5000194311430160F4E90A121143D4E9022354
:100C60001A4311432269114362691143A269114376
:100C7000E26911434160216A8160616AC1608169F2
:100C80004FF641721140D4E90B231A43258D636B53
:100C900043EA05431A43A36B1A43E36B1A430A431F
:100CA0008261D4E910121143C1614F4881694F4AF2
:100CB0001140D4E912231A43D4E914352B431A43C3
:100CC000A36D1A43E36D1A43236E1A43636E1A43EE
:100CD000A36E1A430A438261D4E91B121143626F67
:100CE00054F8783F1A431143626841EA8201A268CE
:100CF000114341F40001016001205AE7FFFF0F009A
:100D00000A0D4554485F5265616450485952656701
:100D100069737465722025643A30782558000000A4
:100D2000FFFF040054930008349200080A0D20507D
:100D300048595F5265736574204572726F72210065
:100D400008930008C49200080A0D204554485F4DDE
:100D50006F646520202020204554485F4D6F6465F6
:100D60005F46756C6C4475706C6578200A0D2000C8
:100D70000A0D204554485F4D6F64652020202020D7
:100D80004554485F4D6F64655F48616C664475709B
:100D90006C6578200A0D20000A0D204554485F53E9
:100DA0007065656420202020204554485F5370659D
:100DB00065645F31304D200A0D2000000A0D20458A
:100DC00054485F53706565642020202020455448B6
:100DD0005F53706565645F3130304D200A0D20002F
:100DE000008002400F8120FF00900240233FDEF888
:100DF000054B8A88184402640A78D1F8011042EA47
:100E0000012141647047000000800240054900282C
:100E1000086802D040F0040001E020F004000860FF
:100E2000704700000080024005490028086802D091
:100E300040F0080001E020F0080008607047000062
:100E40000080024018B500220092124A13694FF642
:100E5000FF7403F01C0304EAC02018434FF4F86346
:100E600003EA8111014321F0020040F0010010610A
:100E700009490098401C00901069C00702D00098F2
:100E80008842F6D30098884201D1002018BD5069ED
:100E900080B218BD00800240FFFF040070B5114D04
:100EA000002422462B68196800290BDA0E491646E1
:100EB0004B691B0602D580234B618E600260426045
:100EC000826070BD0E0407D4CE0505D58E0503D50E
:100ED000C1F30D449A68241FD96829600460C0E9F1
:100EE000012370BD3C0000200090024002480168D0
:100EF00041F00101016070470090024000B50120FF
:100F0000FFF792FFFFF794FD0120FFF77FFF01201D
:100F1000FFF742FD01205DF804EBFFF7FFBC002165
:100F20000160416081604FF48042C160C0E90412F9
:100F3000D2108161C0E9071241628162C16201631E
:100F4000416340228163C0E90F122022C0E91121D0
:100F5000C1640165416581658022C165C0E91812DF
:100F60008166C16601674167D2048167C0E91F12CB
:100F700052105310C0E921231311C0E92331C0F8E6
:100F80009410C0F89810C0F89C10C0E928121212F2
:100F9000C0E92A125212C0E92C21C0F8B8107047DB
:100FA0000C4B19680A68002A01DA00207047C0F368
:100FB0000C00486042F03040086007484269520720
:100FC00003D50422426100224260C86818600120F3
:100FD00070470000380000200090024038B5002320
:100FE0000093114B1C694FF6FF7504F01C0405EAD1
:100FF000C02020434FF4F86404EA8111014341F01A
:1010000003005A61186109490098401C0090186952
:10101000C00702D000988842F6D30098884201D1D8
:10102000002038BD012038BD00800240FFFF0400D1
:1010300010B54FF48064204600F01AF8002807D05D
:1010400004A002F025F82046BDE8104000F00AB8E0
:1010500010BD000041726520596F7520546865729B
:101060006500000001490860704700001404014059
:10107000064A014600201268044B0A4014331B68DC
:101080000B4202D0002A00D001207047000401402A
:1010900030B51A4A8379016853B313688B431360E0
:1010A000111D0B680468A3430B60017911440B68A0
:1010B000046823430B60114B083319680468A1438B
:1010C00019601C1D21680568A94321604179102918
:1010D00005D011440A68006802430A6030BD1968EF
:1010E000026811431960216800680143216030BD26
:1010F0000079104402688A43026030BD0004014058
:1011000010B5B0B0012000F057F94FF4004002F0E4
:101110001DF9012002F014F93D2002F0F3F8002837
:10112000FAD00B2002F006F9FFF76CFCFFF7DEFEA9
:10113000FFF7B4FC0128FBD06846FFF7F0FE012062
:10114000009000204FF40071CDE90A1009040790C7
:101150001190CDE920010E90149013900A11159072
:101160002590269023920420CDE9280180032A901F
:1011700080012B9040122C9040002E900021684658
:10118000FFF7A8FC18B1002002F068F920E0012068
:1011900002F064F900F02CFF807910A100EB8000D0
:1011A000C0B200F02BFE13A002F0B0FC204802F009
:1011B000ADFC204C2046FFF72AF92046FFF727F91F
:1011C00000216846FFF786FC10B91B48FFF71FF99E
:1011D00001211A48FFF796FB30B010BD5858204542
:1011E0005448204C696E6B204552524F522058583B
:1011F00000000000202D2D2D3E20CCE1CABE3A205B
:10120000CDF8BFDAC1ACBDD3CAA7B0DC2045746845
:1012100065726E65745F436F6E666967757261743F
:10122000696F6E2829204554485F4552524F52003D
:1012300034920008002D31010008AF2F400001005A
:1012400030B50D4D85B0286920F01C04684601F0CA
:10125000F5FF0A4901980A4A0144914202D244F03A
:10126000080406E0074908440749884201D244F0CF
:101270000C042C6105B030BD0080024000D3CEFECE
:10128000C0E1E40040F1E9FD40787D0110B50120A6
:1012900000F092F84FF40044204602F057F8012085
:1012A00002F04EF83D2002F02DF80028FAD00B2075
:1012B00002F040F8FFF7C4FF002122460846FFF77E
:1012C0008DFE0A48FFF7A3F802210020FFF7BAFDC0
:1012D000A0F58071813905D110210020FFF7B2FD02
:1012E000C00501D401F05EFF10BD0000FEFF1F002D
:1012F0002DE9F8430426ADF800600324DFF8A88048
:101300008DF8024018258DF803506946404600F0DC
:101310006DF80620ADF80000244F8DF802408DF8DE
:1013200003506946384600F061F84FF46050ADF85C
:1013300000008DF802408DF8035069461C4800F00B
:1013400055F801214FF0201000F0EAF80220ADF826
:1013500000008DF802408DF803606946404600F0B9
:1013600045F84FF4E060ADF800008DF802408DF8CC
:10137000036069460F4800F039F80120ADF800001D
:1013800000208DF803006946384600F02FF8B001C0
:10139000ADF800008DF802408DF8035069464046D4
:1013A00000F024F8BDE8F883000801400010014077
:1013B000000C0140001401400149C1F8DC007047F5
:1013C0000000204210B58A0721F003040649120FDD
:1013D00021440F238C6893409C438C608B68904021
:1013E00003438B6010BD000000000140F0B5CC78D5
:1013F000002204F00F03E40601D58C7823430C7817
:101400004FF00F0C14F0FF0F4FF0010E1BD00568CA
:101410000E880EFA02F42640A64210D196000CFA6D
:1014200006F725EA070703FA06F5CE783D43282E8E
:1014300002D0482E02D002E0446100E00461521C58
:10144000082AE5D305600A88FF2A1CD944680022CF
:1014500002F108060EFA06F50E882E40AE420ED1B5
:1014600096000CFA06F7BC4303FA06F7CE783C4325
:10147000282E00D14561CE78482E00D10561521C3E
:10148000082AE5D34460F0BD38B50121102001F0F1
:10149000C9FE48248DF8034010201E4DADF8000011
:1014A00069462846FFF7A2FF0121082001F0BAFE95
:1014B0008DF803402815ADF8000069461648FFF77F
:1014C00095FF0121102001F0ADFE8DF80340681456
:1014D000ADF8000069462846FFF788FF0121042087
:1014E00001F0A0FE8DF8034001200C4DADF8000086
:1014F00069462846FFF77AFF0121042001F092FE99
:101500008DF803400821ADF8001069462846FFF722
:101510006DFF38BD00100140000C01400008014083
:10152000F0B5144C002801DAE36900E06368450D6A
:101530002E0185B2C0F30157B540C0F30342032F1B
:1015400005D0C6020AD503269640B34307E023F030
:101550007062636823F07063636002E0AB4343F042
:10156000706201B12A43002801DAE261F0BD6260D5
:10157000F0BD000000000140806880B2704741610A
:10158000704701617047C1607047FEE72DE9F04187
:101590004C6890B02FA0250ECDE900500E46C4F344
:1015A0000743C4F30722E1B29846174631A002F080
:1015B000ADFA8DF83C508DF83D808DF83E708DF879
:1015C0003F409DF83C109DF83D00CDE900019DF89D
:1015D0003E309DF83F2032A102A802F0A7FA00F0A9
:1015E00007FD807902A900EB8000C0B200F006FC84
:1015F0000121242003F035FD0146304604F0E6F9D0
:101600002D49304604F0C2FC2C49304605F091FDCE
:101610009DF83C109DF83D00CDE900019DF83E305D
:101620009DF83F2026A102A802F080FA02A8FEF74A
:10163000CFFD82B2012302A9304605F0B0FF01239D
:101640001E2204A1304605F0AAFF10B00020BDE81C
:10165000F081000049206861766520676F747465C9
:101660006E20796F7520696E206D792073696768C7
:10167000742100000A0D54656C6E65742048656C19
:101680006C6F576F726C645F6163636570743A2549
:10169000642E25642E25642E2564202025730000E9
:1016A00054656C6E65743A25642E25642E25642E6F
:1016B0002564202020000000ED1600081D170008FA
:1016C000C4FA54656C6E6574B5C7C2BCB5C4B5E7E1
:1016D000C4D44950B5D8D6B7CEAA3A2025642E2511
:1016E000642E25642E25640A0000000003F0C6BCA9
:1016F00010B504F0E3FE044643F23902054904F054
:1017000067F9FF21204604F097FEBDE8104002492A
:1017100004F0D4B8989100088D1500082DE9F04721
:101720005FEA0208894604464DD0B8F808104846DA
:1017300005F010FD2CB100254146271D00204E6804
:1017400015E0404603F07EFF6FF00900BDE8F0872A
:10175000335C0D2B1CD00A2B1AD000252268202ABE
:1017600004DA02F1010CC4F800C0D355401C4A89C8
:10177000824201DD002DEBD009680029DED117A0DF
:1017800002F0C4F919A0216802F0C0F9002507E0B1
:101790000125E3E76019017918A002F0B7F96D1C83
:1017A0002068A842F6DC16A002F0B0F920880123D8
:1017B00082B2211D484605F0F2FE0020206040461E
:1017C00003F040FF00E00BB10020BFE7204603F02C
:1017D00055FC4846BDE8F04704F09EB90A0D526535
:1017E0006365697665640D0A000000004C656E67EC
:1017F0007468203A2025640D0A000000256300006B
:101800000D0A00000029018802D041F4806101E046
:1018100021F4806101807047034600209A8A1B8B67
:1018200042EA034222F07F42914300D101207047F7
:10183000C943818270470029018802D041F001012B
:1018400001E021F001010180704700001FB5002078
:10185000ADF804004BF6FF70ADF80600A020ADF81F
:1018600008004FF48060ADF80A000001ADF80C00EC
:1018700009480A4C009001212046FFF7DCFF694629
:10188000204600F0E1F901212046FFF7BBFF04A04C
:1018900002F03CF91FBD0000801A06000054004011
:1018A0000A0D204932435F436F6E66696775726146
:1018B00074696F6E2D2D2D2D00000000094910B5A3
:1018C00088424FF0010101D14C0501E04FF4800442
:1018D000204601F09BFC2046BDE81040002101F0AD
:1018E00095BC0000005400402DE9F047394F1446E4
:1018F0008A4605464FF400363146384600F08EF9E8
:101900000028F9D10121384600F074F9324E3846EA
:101910003146FFF781FF0028F9D0DFF8C0800022B0
:10192000384698F8001000F0F5F9DFF8B490384622
:101930004946FFF771FF0028F9D001213846FFF72B
:101940007AFF5146384600F0EDF9DFF8949009F13E
:10195000020949463846FFF75FFF0028F9D0012108
:10196000384600F047F931463846FFF755FF002862
:10197000F9D098F8001001223E46384600F0CAF926
:10198000154F7F1C39463046FFF746FF0028F9D037
:10199000114F3F37BCB1012C07D100213046FFF772
:1019A00031FF0121304600F02FF939463046FFF76C
:1019B00033FF0028EED0304600F0A9F9641E05F888
:1019C000010BA4B2E6E73046BDE8F0470121FFF77E
:1019D00019BF00000054004001000300080000206F
:1019E000820007002DE9F041054611F007000C4682
:1019F00002F00701C0F10807C2F3C706884611D0FC
:101A00008EB1D01BC0F3C70600F0070887B33A4673
:101A10002146284600F03EF800F08CF8E019C4B2E8
:101A20003D4425E05EB90A4610E0082221462846DA
:101A300000F030F800F07EF80834E4B20835761E85
:101A4000F6B2F2D2B8F1000016D00246214628467E
:101A500000F020F8BDE8F04100F06CB80822214603
:101A6000284600F017F800F065F80834E4B20835AD
:101A7000761EF6B2F2D2E5E7BDE8F08110B500F0CF
:101A800085F8FFF7E3FE0249A020088010BD0000A2
:101A9000080000202DE9F041224E144688460546F4
:101AA0004FF400373946304600F0B8F80028F9D135
:101AB0000121304600F09EF81B4F30463946FFF7B3
:101AC000ABFE0028F9D0194800220178304600F01A
:101AD00021F9174F30463946FFF79EFE0028F9D00E
:101AE0004146304600F01EF9114FBF1C39463046C2
:101AF000FFF792FE0028F9D00AE02978304600F07E
:101B000011F96D1C39463046FFF786FE0028F9D0E2
:101B1000641EE4B2F1D23046BDE8F041012100F08C
:101B200073B80000005400400100030008000020CA
:101B30008200070038B50020ADF80000104C114DB0
:101B40000121204600F056F81421204600F0DAF872
:101B5000ADF8000029780022204600F0DBF81421BF
:101B6000204600F0CFF88007EAD507492046FFF766
:101B70005FFE2046BDE83840012100F045B8000076
:101B800000540040080000200004001008B50121A6
:101B9000480501F02FFB0121082001F043FBC02084
:101BA000ADF8000003208DF802001C208DF8030022
:101BB00069460248FFF71AFC08BD0000000C01400E
:101BC00008B500214FF4001001F014FB012108209A
:101BD00001F028FBC020ADF8000003208DF80200C2
:101BE00010208DF8030069460148FFF7FFFB08BD90
:101BF000000C01400029018802D041F4807101E00D
:101C000021F48071018070470029018802D041F4DD
:101C1000007101E021F40071018070470CB50246AB
:101C2000002000920A0F21F07F41019202D0009A19
:101C3000143202E0009A090C1832009212680A422B
:101C400000D001200CBD000070B50446808886B02D
:101C50000D4620F03F06684601F0F0FA2749029849
:101C6000B0FBF1F189B20E43A680228822F0010276
:101C70002280234B2A689A421CD85200B0FBF2F013
:101C800080B2042800D20420491C2184A08320882B
:101C900040F00100208020884FF6F5310840A988E7
:101CA0006A89114301432180A88929890843208139
:101CB00006B070BDEB88A3F53F46FF3E0BD002EBAC
:101CC000C20303EB0212B0FBF2F080B240F480409A
:101CD000020506D007E002EB4202B0FBF2F080B250
:101CE000F6E740F001004FF4967251434FF47A72D8
:101CF000B1FBF2F140F40040C6E7000040420F00A3
:101D0000A086010008B508440090008808BD008A3C
:101D1000C0B2704712B141F0010101E001F0FE01D3
:101D200001827047018270472DE9F0470024824606
:101D30002146204600F0FEF901F0E2F8DFF8489075
:101D40004FF4807841464846FFF719FC4FF40051A4
:101D50000E48FFF716FC0E4D4FF480464FF49637B1
:101D600031462846FFF70BFC504601F0A1F83146FA
:101D70002846FFF706FC641CBC42F1D341464846A6
:101D8000BDE8F047FFF7FDBB001001400014014023
:101D9000000C014008B54FF6FF70ADF800000320BD
:101DA0008DF8020004208DF8030069460148FFF712
:101DB0001DFB08BD0018014008B54FF6FF70ADF8D7
:101DC000000003208DF8020010208DF80300694602
:101DD0000148FFF70BFB08BD00180140203AD3B2C1
:101DE000054A30B492681468D2885A4304EB420220
:101DF00030BC00F039B800007C0000202DE9F04133
:101E00000D46804600240A4E4FF4A0770BE0214691
:101E10004046FFF7E3FFB068808801198CB2204488
:101E2000B84203D86D1C2A78002AF0D1BDE8F081B1
:101E30007C0000202DE9F04100240A4D07460426CD
:101E400004EBC40005EBC00204EB440006EBC00049
:101E500081B2384600F042F8641CA4B20D2CEFD3D6
:101E6000BDE8F081AC8D00082DE9F74F914607469B
:101E70000025019900F05EF9164E4FF001084FF46D
:101E8000807ADFF854B01EE001F03AF800240BE04D
:101E900039F8151008FA04F0014201D1708800E009
:101EA000308801F005F8641CB0688088A042EFD843
:101EB00051465846FFF765FB7F1CFFB23846019933
:101EC00000F038F96D1CB068C088A842DCD8BDE8C5
:101ED000FE8F00007C000020001001402DE9F74F2C
:101EE00000268146019900F025F94FF0800BDFF8BC
:101EF000588001F005F8002506EB460A00240AEB9D
:101F000005070298C15D2BFA04F00142404601D159
:101F1000408800E0008800F0CBFF641C082CF0D360
:101F20006D1C032DEAD34FF480710848FFF729FB9D
:101F300009F10100C0B28146019900F0FBF8761C5E
:101F4000182ED6D3BDE8FE8F7C0000200010014083
:101F50002DE9F0479846164689460546002400F0CC
:101F6000E9F8104FB8F1000F13D100F0C9FF03E0FA
:101F7000388800F09DFF641CB442F9D30BE0388828
:101F800000F0AEFF6D1CEDB24946284600F0D2F8D5
:101F9000641CB442F3D3BDE8F0474FF480710248AB
:101FA000FFF7EFBA7C000020001001402DE9F0415E
:101FB0001E4614460F46054600233246FFF7C8FF6B
:101FC0002819C0B2002332463946FFF7C1FF01236A
:101FD000224639462846FFF7BBFFB81B401C81B29A
:101FE00022462846BDE8F0410123FFF7B1BF0000BB
:101FF00001488068704700007C0000202DE9F84F00
:102000000121782001F00EF94FF6FF70ADF80000C5
:1020100003208DF8020010208DF8030069461C484B
:10202000FFF7E4F9DFF86CA04FF48044ADF800400E
:1020300069465046FFF7DAF9DFF85C80A511ADF884
:10204000005069464046FFF7D1F9DFF8509066101E
:10205000ADF8006069464846FFF7C8F96700ADF87B
:10206000007069464846FFF7C1F929464046FFF728
:1020700088FA21465046FFF784FA39464846FFF76A
:1020800080FA31464846FFF77CFABDE8F88F000039
:1020900000180140000C01400010014000140140F4
:1020A0002DE9F0471B4D81464FF4807421462846A8
:1020B000FFF765FADFF860A0660131465046FFF78A
:1020C0005EFADFF85880A70139464046FFF757FA15
:1020D0004946DFF84C904846FFF755FA39464046E6
:1020E000FFF74FFA31465046FFF74BFAE60131460B
:1020F0005046FFF744FA31465046FFF742FA484649
:10210000FFF73AFA064621462846FFF73AFA3046E4
:10211000BDE8F0870010014000140140000C0140B0
:102120000018014001B5BDF800000149488008BD14
:102130007C00002070B50E46184904468888A0F53A
:102140000942893A1DD08A88A6F23F104542A2F57D
:102150001343203B1CD08888A0F51942193A10D0AF
:102160008888A0F5A851053912D03146202000F00A
:10217000F1FEA4F23F1461422120BDE8704000F05E
:10218000E9BE21464E2000F0E5FE31464F20F4E73F
:102190002146202000F0DEFEA9B2EDE77C00002001
:1021A00001B5BDF800000149088008BD7C00002091
:1021B0002DE9F04F8DB01822FAA106A8FDF7E4FF33
:1021C0001822FEA16846FDF7DFFFFFF717FF012089
:1021D00001F060FE0121002000F0BCFE032001F0B0
:1021E00059FEFFF7D7FD022001F054FE0020FFF753
:1021F00057FFF84CA080A08818B90020FFF750FFC7
:10220000A080A188F4A001F081FCA088302101EB1E
:1022100010308DF80F00A088C0F3032030308DF807
:102220001000A088C0F3031030308DF81100A08892
:1022300000F00F0030308DF81200FFF7BDFD0220D6
:1022400001F028FEA08848F68916B04202D1F0A01D
:1022500001F05CFCA08849F22537B84202D1F2A017
:1022600001F054FCA0884FF4E06940F2077540F299
:102270003F1A4FF4887B49F22838B84202D0A08830
:1022800040457DD143F20801E32000F063FE1221B6
:10229000E72000F05FFE41F23121EF2000F05AFE0E
:1022A0000121002000F056FE4FF48071012000F063
:1022B00051FE4946022000F04DFE41F2300103205C
:1022C00000F048FE0021042000F044FE40F2072107
:1022D000082000F03FFE0021092000F03BFE002115
:1022E0000A2000F037FE01210C2000F033FE00210F
:1022F0000D2000F02FFE00210F2000F02BFE00210A
:10230000102000F027FE0721112000F023FE0021FD
:10231000122000F01FFE0021132000F01BFE0520FC
:1023200001F0B8FD052001F0B5FD41F290511020FB
:1023300000F010FE40F22721112000F00BFE0520D6
:1023400001F0A8FD052001F0A5FD9C21122000F060
:1023500001FE052001F09EFD052001F09BFD4FF4DC
:10236000C851132000F0F6FD2321292000F0F2FDD2
:102370000E212B2000F0EEFD052001F08BFD00E08A
:102380009FE0052001F086FD0021202000F0E2FD05
:102390000021212000F0DEFD052001F07BFD05205D
:1023A00001F078FD0721302000F0D4FD29463120CE
:1023B00000F0D0FD0621322000F0CCFD40F2047187
:1023C000352000F0C7FD41F60471362000F0C2FD53
:1023D0000421372000F0BEFD0021382000F0BAFDB6
:1023E00040F20671392000F0B5FD40F201713C2049
:1023F00000F0B0FD0F213D2000F0ACFD052001F004
:1024000049FD052001F046FD0021502000F0A2FD0D
:10241000EF21512000F09EFD0021522000F09AFD96
:102420005146532000F096FD4FF42741602000F004
:1024300091FD0121612000F08DFD00216A2000F056
:1024400089FD0021802000F085FD0021812000F021
:1024500081FD0021822000F07DFD0021832000F01D
:1024600079FD0021842000F075FD0021852000F019
:1024700071FD1021902000F06DFD4FF4C06192209D
:1024800000F068FDA08840450FD10321932000F0A3
:1024900061FD5946952000F05DFD0021972000F078
:1024A00059FD0021982000F055FD40F2331107201E
:1024B00000F050FD0021202000F04CFD00212120E3
:1024C00025E1A088A0F51341203965D0A088B0F59A
:1024D000134FFAD0A0884FF4006BA0F513414FF4CE
:1024E0000177313959D0A1884FF40048A1F519403E
:1024F000193853D0A088A0F5A85105394FD0A0882D
:10250000B0424DD10121002000F024FD4AF6A40183
:10251000032000F01FFD00210C2000F01BFD40F601
:102520000C010D2000F016FD4FF42C510E2000F090
:1025300011FDB0211E2000F00DFD42F63F110120DB
:1025400000F008FD4FF4C061022000F003FD0021FF
:10255000102000F0FFFC46F27801112000F0FAFC98
:102560000021052000F0F6FC0021062000F0F2FC1E
:102570004EF61C71162000F0EDFC0321172000F030
:10258000E9FC40F23321072000F0E4FC00210B209D
:1025900000F0E0FC002153E0A3E1BBE055E2D9E20A
:1025A000F3E3000020207777772E61726D6A6973FC
:1025B00068752E636F6D202000000000204C43449E
:1025C000204472697665722049443A3933323020AA
:1025D000000000007C0000200A0D20232323232379
:1025E00023207777772E61726D6A697368752E6321
:1025F0006F6D204465766963654964436F64652047
:102600003D20307825782023232323232320000016
:102610000A0D2054686973204C4344206973205389
:1026200053443132383920000A0D20546869732030
:102630004C434420697320494C49393332352000DA
:102640000F2000F087FC0021412000F083FC0021D6
:10265000422000F07FFC0021482000F07BFC564621
:102660005146492000F076FC00214A2000F072FC1F
:1026700000214B2000F06EFC4FF46F41442000F02D
:1026800069FC0021452000F065FC3146462000F041
:1026900061FC2946302000F05DFC3946312000F015
:1026A00059FC3946322000F055FC40F202552946CB
:1026B000332000F04FFC691D342000F04BFC3946FC
:1026C000352000F047FC3946362000F043FC29460F
:1026D000372000F03FFC40F2023529463A2000F056
:1026E00039FC29463B2000F035FC0021232000F076
:1026F00031FC0021242000F02DFC4146252000F073
:1027000029FC00214E2000F025FC00214F2000F084
:1027100021FC3FE341F21401E72000F01BFC4FF4E1
:102720008071012000F016FC4FF40071022000F0CF
:1027300011FC41F23001032000F00CFC40F20221B8
:10274000082000F007FC0021092000F003FC002114
:102750000A2000F0FFFB00210C2000F0FBFB002111
:102760000D2000F0F7FB00210F2000F0F3FB00210B
:10277000102000F0EFFB0721112000F0EBFB0021FF
:10278000122000F0E7FB0021132000F0E3FB0520FE
:1027900001F080FB41F29061102000F0DBFB40F281
:1027A0002721112000F0D6FB022001F073FB0C2141
:1027B000122000F0CFFB022001F06CFB59461320E1
:1027C00000F0C8FB1121292000F0C4FB0B212B20B5
:1027D00000F0C0FB022001F05DFB0021202000F092
:1027E000B9FB0021212000F0B5FB0021302000F0D2
:1027F000B1FB4FF483763146312000F0ABFB002172
:10280000322000F0A7FB3946352000F0A3FB41F24F
:102810000A61362000F09EFB2946372000F09AFB23
:102820003146382000F096FB2946392000F092FB13
:1028300040F202413C2000F08DFB40F60F413D206C
:1028400000F088FB0021502000F084FBEF21512094
:1028500000F080FB0021522000F07CFB5146532009
:1028600000F078FB4FF41C51602000F073FB012155
:10287000612000F06FFB00216A2000F06BFB00215B
:10288000802000F067FB0021812000F063FB002125
:10289000822000F05FFB0021832000F05BFB002121
:1028A000842000F057FB0021852000F053FB10210D
:1028B000902000F04FFB4FF4C061922000F04AFBE3
:1028C0002121072000F046FB022001F0E3FA6121FC
:1028D000072000F03FFB022001F0DCFA40F2331148
:1028E0004CE2A188FEA001F011F90121002000F0C6
:1028F00031FB4FF48071012000F02CFB494602208F
:1029000000F028FB41F21801032000F023FB022015
:1029100001F0C0FA0021042000F01CFB40F202216B
:10292000082000F017FB0021092000F013FB002114
:102930000A2000F00FFB01210C2000F00BFB00210E
:102940000D2000F007FB00210F2000F003FB052005
:1029500001F0A0FA40F20111072000F0FBFA052077
:1029600001F098FA4FF48651102000F0F3FA072195
:10297000112000F0EFFA5D465946122000F0EAFA05
:102980004FF43061132000F0E5FA0021292000F017
:10299000E1FA44F210012B2000F0DCFA0021502073
:1029A00000F0D8FAEF21512000F0D4FA0021522093
:1029B00000F0D0FA5146532000F0CCFA4FF41C51ED
:1029C000602000F0C7FA0121612000F0C3FA002165
:1029D0006A2000F0BFFA0021802000F0BBFA00213D
:1029E000812000F0B7FA0021822000F0B3FA002124
:1029F000832000F0AFFA0021842000F0ABFA002120
:102A0000852000F0A7FA1021902000F0A3FA002101
:102A1000922000F09FFA0121932000F09BFA2946B2
:102A2000952000F097FA0021972000F093FA0021FA
:102A3000982000F08FFA052001F02CFA40F2731173
:102A4000072000F087FA05209CE10621282000F0ED
:102A500081FA0121002000F07DFA0021102000F011
:102A600079FA47F2EF21012000F074FA4FF4C061C7
:102A7000022000F06FFA46F63821032000F06AFACF
:102A800046F67401112000F065FA00210F2000F0D5
:102A900061FA45F208310B2000F05CFA03210C20AA
:102AA00000F058FA0A210D2000F054FA4FF4385182
:102AB0000E2000F04FFABE211E2000F04BFA4146D6
:102AC000252000F047FA4FF4F041262000F042FAAA
:102AD0007821272000F03EFA00214E2000F03AFA3B
:102AE00000214F2000F036FA40F6D901122000F004
:102AF00031FA0021302000F02DFA4FF4827131209C
:102B000000F028FA4FF48071322000F023FA40F2EE
:102B100005363146332000F01DFA40F205513420CD
:102B200000F018FA3146352000F014FA2946362014
:102B300000F010FA711F372000F00CFA4FF490519A
:102B40003A2000F007FA59463B2000F003FA3321FF
:102B50000720DCE50021072000F0FCF9022001F04D
:102B600099F94FF48E71122000F0F4F90121A4209C
:102B700000F0F0F90F21082000F0ECF908210A20FC
:102B800000F0E8F908210D2000F0E4F92946302092
:102B900000F0E0F90721312000F0DCF940F2036198
:102BA000322000F0D7F94E464946332000F0D2F9E2
:102BB00040F20221342000F0CDF90221352000F04E
:102BC000C9F941F60F71362000F0C4F929463720C3
:102BD00000F0C0F90021382000F0BCF900213920B4
:102BE00000F0B8F929463A2000F0B4F900213B2062
:102BF00000F0B0F907213C2000F0ACF900213D20A5
:102C000000F0A8F9022001F045F90121072000F0A9
:102C1000A1F90121172000F09DF9022001F03AF9F5
:102C20004FF4BD51102000F095F940F2172111200A
:102C300000F090F94FF48F71122000F08BF94FF4EF
:102C40007061132000F086F900212A2000F082F93B
:102C50000A21292000F07EF94FF49F71122000F024
:102C600079F90021502000F075F9EF21512000F092
:102C700071F90021522000F06DF95146532000F007
:102C800069F94FF41C51602000F064F901216120C2
:102C900000F060F900216A2000F05CF9002180203A
:102CA00000F058F90021812000F054F90021822021
:102CB00000F050F90021832000F04CF9002184201D
:102CC00000F048F90021852000F044F913219020FC
:102CD00000F040F94FF44071922000F03BF90BE016
:102CE0000A0D2054686973204C434420697320699D
:102CF0006C6925782E0000000521932000F02AF948
:102D00000021952000F026F90021972000F022F9FB
:102D10000021982000F01EF94FF48071012000F08E
:102D200019F93146022000F015F941F2180103208B
:102D300000F010F90021042000F00CF900210C2013
:102D400000F008F900210F2000F004F900212020F4
:102D500000F000F90021212000F0FCF821210720DB
:102D600000F0F8F8022001F095F86121072000F04A
:102D7000F1F8022001F08EF840F27311072000F004
:102D8000E9F8022001F086F804E0FFE7A1881AA024
:102D900000F0BCFE012001F07DF84FF4FC60FEF76E
:102DA000C3FF4FF6E070ADF83000BDF83000208072
:102DB0004FF47840ADF83000BDF830006080A06876
:102DC00006A9807900EB8000C0B2FFF717F8A06871
:102DD0006946807900EB40004006000EFFF70EF8D0
:102DE000A06880794006000EFFF724F8502001F01B
:102DF00051F80DB0BDE8F08F0A0D202323232323C3
:102E000023204572723A20556E6B6E6F77204465B1
:102E1000766963654964436F64652030782578205E
:102E2000232323232323200030B5184987B04A6881
:102E300002F57A72904227D348604FF47A71B0FB62
:102E4000F1F04FF46161B0FBF1F21823B2FBF3F43F
:102E500003FB1422B0FBF1F301FB1303B0FBF1F50C
:102E60003C2401FB1500B0FBF4F1B3FBF4F304FBCD
:102E70001100009006A101A800F058FEFFF7B8F875
:102E800001A90020FEF7BAFF07B030BD0000002006
:102E90002052756E2054696D653A2025302E3264BB
:102EA0003A25302E32643A25302E3264200000005C
:102EB00070B5094D06464FF4804421462846FEF77A
:102EC0005EFB31460548FEF75EFB21462846BDE81D
:102ED0007040FEF756BB0000000C01400018014096
:102EE00010B5044600F00CF82046FFF7E1FFBDE8FE
:102EF00010404FF480710148FEF743BB00100140C1
:102F00002DE9F0414FF480710E48FEF738FB0E4D6D
:102F10004FF4005421462846FEF731FB0B4F660064
:102F200031463846FEF72BFB22210948FEF72BFBE2
:102F300031463846FEF725FB21462846BDE8F041DC
:102F4000FEF71FBB0010014000140140000C0140BF
:102F5000001801402DE9F05F1B4D8B4681464FF470
:102F6000807421462846FEF70AFB184F6601314659
:102F70003846FEF704FBDFF858A04FF4804841467E
:102F80005046FEF7FCFA4946DFF848904846FEF7FF
:102F9000FAFA41465046FEF7F4FA31463846FEF753
:102FA000F0FA41465046FEF7EAFA59464846FEF71F
:102FB000EAFA41465046FEF7E4FA21462846BDE8C3
:102FC000F05FFEF7DEBA000000100140001401407F
:102FD000000C01400018014000B517A089B0D0E9ED
:102FE0000010CDE9031002F05FF802F039F914483F
:102FF00001F0AFFA05906FF0FF0001F0AAFA069019
:103000000F48401F01F0A5FA079003A800F004FB49
:103010000C4A0D4900208DE8070007AB06AA05A958
:103020000A4802F059F9094802F090F9074802F0FD
:10303000CFF909B000BD0000CCBBAA9988010000FF
:103040000601A8C0B142000805430008280100207D
:1030500031B50B4C00996068081AFA2802D36160F8
:1030600004F078FA0098A168401A41F28831884249
:1030700005D30098A060BDE8384001F0EFB838BD36
:103080000C000020014801F069B90000280100206F
:1030900070B50546094804680CE02846FDF798F825
:1030A00082B201232946204604F079FA204603F033
:1030B00041FAE468002CF0D170BD0000CC00002083
:1030C000FEE7704708B500214FF0006000F060F89F
:1030D0004FF4A06000F042F83D208DF8000002207F
:1030E0008DF8010000208DF8020001208DF803000A
:1030F000684600F001F808BD30B50F23C2780178AA
:103100000125F2B1144A126801F1E02102F4E062F3
:10311000C2F5E062120AC2F10404D3404278A24030
:1031200084781C401443220181F80024007800F0C8
:103130001F018D404009800000F1E020C0F80051DF
:1031400030BD01F01F0085404809800000F1E020FB
:10315000C0F8805130BD00000CED00E0024908438A
:1031600002490860704700000000FA050CED00E01D
:103170000907090E002806DA00F00F0000F1E02030
:1031800080F8141D704700F1E02080F800147047AB
:10319000024A1140014302480160704780FFFF1F4F
:1031A00008ED00E004480168044A01F4E0611143BD
:1031B0000160BFF34F8FFEE70CED00E00400FA055D
:1031C00070470000044A0029516901D0014300E022
:1031D000814351617047000000100240044A0029F9
:1031E000916A01D0014300E0814391627047000081
:1031F00000100240044A0029D16901D0014300E0D7
:103200008143D1617047000000100240044A002948
:10321000116901D0014300E0814311617047000052
:1032200000100240044A0029916901D0014300E0E6
:10323000814391617047000000100240F0B52C4BB3
:1032400059682C4A11F00C014FF00F0604D02A4C9B
:10325000042903D0082903D0026028E0046026E096
:1032600059685A6806EA914102F480320D2901D06A
:10327000891C00E00621BAB1DA6A12F4803FDA6AEA
:1032800002F00F0202F101020AD0DD6AC5F3031752
:10329000DD6A7F1CB4FBF7F4C5F30325AD1C6C435A
:1032A000B4FBF2F24A43D7E7144A5143016059682C
:1032B000134A06EA1111545C0168E14041605C6800
:1032C000072505EA1424145D21FA04F484605C687F
:1032D00005EAD424125DD140C1605A68032303EA91
:1032E0009232074B1B1F9A5CB1FBF2F10161F0BDFA
:1032F0000010024000127A0040787D0100093D0074
:1033000028000020034600205909094A01290AD053
:1033100002290AD0516A03F01F02012393400B4295
:1033200000D0012070471168F5E7116AF3E700004B
:10333000001002400149C8717047000000100240AF
:10334000014908677047000000004242034AD16A01
:1033500021F470410143D162704700000010024027
:103360000248A0F10C018860FEF722BF880000200F
:10337000F8B50D46044627492648083150F8240080
:1033800051F82410084340F001000121FFF74AFFE3
:10339000204E083E9CB356F824000121FFF742FF5F
:1033A00018208DF803001B486946383830F814009F
:1033B000ADF8000003208DF80200174850F82400F3
:1033C000FEF714F804208DF80300124869463438DB
:1033D00030F81400ADF800000F48083050F8240011
:1033E000FEF704F80C4E2946083E56F8240000F07B
:1033F00031FB56F82400012100F01AFBF8BDFFE76D
:1034000001210820FEF78CF801213068FFF7F2FE59
:10341000C6E70000B07B00085000002038B5044625
:103420000C48012150F82400FFF7FCFE09486946CA
:10343000223830F81400ADF8000010208DF8030099
:1034400003208DF80200044850F82400FDF7CEFF59
:1034500038BD0000C07B0008600000200349044A1A
:1034600031F8101052F82000016170479E7B00086F
:10347000600000200349044A31F8101052F820007F
:10348000416170479E7B000860000020044951F8AC
:103490002010CA68034B33F810004240CA607047DE
:1034A000600000209E7B00087FB5044623480D463F
:1034B000012150F8240040F00100FFF7B3FE1F483F
:1034C00003A9503830F81400ADF80C0004208DF832
:1034D0000F001B4850F82400FDF788FF012D2CD168
:1034E00016483E3810F81410801F10F81400FDF72D
:1034F00069FF12484A3830F81400009000208DF817
:1035000004000CB10C2000E008208DF80500012516
:103510008DF806506846FDF7BBFD0848383810F8AE
:1035200014008DF808000F208DF809008DF80A00AE
:103530008DF80B5002A8FFF7DFFD7FBDD07B0008A0
:1035400070000020704700000CB500222E48009249
:103550000192016841F4803101604FF4A063016879
:1035600001F4003101910099491C0091019911B9B0
:1035700000999942F3D10168890342D50121019153
:1035800022490A6842F010020A600A6822F0030227
:103590000A600A6842F002020A60416841604168BC
:1035A0004160416841F480614160C16A184A11403C
:1035B000C162C16A174A1143C162016841F080616A
:1035C000016001680901FCD5416821F47C1141606A
:1035D000416841F4E8114160016841F08071016087
:1035E00001688901FCD5416821F00301416041680F
:1035F00041F0020141604168C1F381010229FAD121
:103600000CBD01920CBD00000010024000200240E1
:1036100000F0FEFF44060100084902780A70427873
:103620004A7082788A70C278CA7002790A714279C7
:103630004A7101460020FDF7DBBB0000900000202E
:1036400000F056B9124810B5016841F0010101605F
:103650004168104A1140416001680F4A1140016001
:10366000016821F480210160416821F4FE0141607C
:10367000016821F0A05101604FF47F0181600021B9
:10368000C162FFF761FF05494FF00060086010BD9F
:10369000001002400000FFF0FFFFF6FE08ED00E022
:1036A00010B5064C2068FCF7BBFE2068FFF7BCFB9A
:1036B0002068BDE81040FFF7CBBC000000000020F0
:1036C00030B585B0FFF7BEFF01214804FFF792FD3A
:1036D00001214FF4E030FFF775FD012140F27D201C
:1036E000FFF7A0FDFFF7EEFCFDF702FEFDF7CEFDB4
:1036F00000F006F9FFF734FE0020FFF78FFE0120EF
:10370000FFF78CFE0220FFF789FE0320FFF786FEFD
:103710000020FFF7AFFE0120FFF7ACFE0220FFF70D
:10372000A9FE0320FFF7A6FE01210220FFF7BCFE41
:103730001F20FEF7F9FA1F20FEF7F4FC4FF2DE70AF
:10374000FEF72EFDFEF754FC37A10020FEF756FBD6
:10375000FEF74EFC80793AA1FEF750FBFEF748FCDD
:1037600080793DA14006000EFEF748FBFEF740FCC5
:1037700080793FA100EB4000C0B2FEF73FFBFEF7AF
:1037800037FC807900EBC000C0B2FEF753FBFEF7B8
:103790002FFC80793CA1C0EBC000C0B2FEF72EFB2D
:1037A000FCF780FD98B33EA000F0B0F9FEF720FCD6
:1037B00080793FA1C0EBC000C0B2FEF71FFBFDF750
:1037C0009FFCFDF761FE6846FFF738FD0098642115
:1037D000B0FBF1F14FF0FF35B1F1807F0DD221F058
:1037E0007F404FF0E024401E60610F212846FFF724
:1037F000BFFC0020A0610720206101212846FFF7BF
:10380000B7FC00210220FFF74FFE05B030BDFFE7F7
:103810002DA000F07BF9FEF7EBFB80792EA1C0EB29
:10382000C000C0B2C9E700002020202020202020B6
:103830002020202020202020202020200000000008
:10384000202020202053544D333246313037202061
:10385000202020200000000020436F6E6E656374FE
:103860006976697479204C696E652020000000003B
:103870002020202A204C7749502064656D6F7320EA
:103880002A20202000000000202020454550524FD3
:103890004D20544553542E2E2E2E20202000000063
:1038A000202D2D2D3E504153534544210A0D00003B
:1038B000454550524F4D2054455354205041535389
:1038C0004544212100000000202D2D2D3E46414978
:1038D0004C4544210A0D0000454550524F4D20549F
:1038E000455354202A4641494C45442100000000DC
:1038F000024801680A3101607047000000000020A2
:1039000010B514484FF4E131016000218180C1807D
:10391000018181810C21418101460020FFF728FDB2
:103920000DA10FA000F0F2F8184800F0EFF8002306
:103930000522032116A000F0E9F82148018821A002
:1039400000F0E4F82D480168BDE810402CA000F01C
:10395000DDB800005C010020555341525432000094
:103960000D0A0A0A0D2020202020202020202020BF
:10397000257320636F6E666967757265642E2E2EDF
:103980002E20202020202020200000007C920008F3
:103990000A0D20557365205F5F53544D3332463115
:1039A00030585F5354445045524950485F56455231
:1039B00053494F4E2025642E25642E2564000000B7
:1039C000E0F7FF1F0A0D20B2FAC6B7C4DAB2BF464D
:1039D0006C617368B4F3D0A1CEAAA3BA25644BD7A7
:1039E000D6BDDAA3A12009207777772E61726D6AA0
:1039F000697368752E636F6D000000001001002070
:103A00000A0D20CFB5CDB3C4DABACBCAB1D6D3C66E
:103A1000B5C2CA2853797374656D436F7265436C80
:103A20006F636B29CEAAA3BA2564487A2E0A0D00CB
:103A30000029818902D041F4005101E021F40051B4
:103A4000818170470246002012880A4200D001207E
:103A50007047000030B50446008A85B00D464CF62C
:103A6000FF710840E98801432182A0894EF6F311D5
:103A70000840A9882A8911436A8902431143A18118
:103A8000A08A4FF6FF410840A9890143A1826846F8
:103A9000FFF7D4FB1948844201D1039800E0029853
:103AA000A189090400EBC00101EB0010296801D5D0
:103AB000490000E08900B0FBF1F06422B0FBF2F1B4
:103AC00009010B096FF018056B4300EB8300A38914
:103AD0001D044FF0320306D503EBC000B0FBF2F03B
:103AE00000F0070005E003EB0010B0FBF2F000F07F
:103AF0000F000843208105B030BD000000380140B0
:103B0000C1F3080181807047FEE700000FB4054B48
:103B100010B503A9044A029800F02CF810BC5DF817
:103B200014FB000011450008240100200FB4084BCD
:103B300010B504A902AA039800F01CF8044602A9D3
:103B4000002000F077F9204610BC5DF814FB00005F
:103B5000353E000802E008C8121F08C1002AFAD149
:103B600070477047002001E001C1121F002AFBD1FD
:103B7000704700002DE9FF4F8DB09B460F4604466D
:103B8000002606E025280BD05A460F999047641C62
:103B9000761C20780028F5D111B03046BDE8F08FB2
:103BA0000025A8460122984900E0054314F8013F8A
:103BB000203B02FA03F00842F7D120782E2817D1D3
:103BC00014F8010F45F004052A280ED06FF02F02DB
:103BD0002078A0F1300109290AD808EB880102EB0E
:103BE000410100EB0108641CF2E757F8048B641CE8
:103BF00020786C280DD004DC4C2812D06A2811D112
:103C000004E074280DD07A280CD10AE045F40015A0
:103C100007E0617845F48015814202D1641C05F506
:103C20008015641C2278692A45D008DC002AB3D0AC
:103C3000582A69D0632A10D0642A08D13BE0702A40
:103C400067D0732A13D0752A5CD0782A5CD01046CE
:103C50005A460F999047761CD3E017F8040B8DF85D
:103C6000000000208DF80100E946012003E057F82C
:103C7000049B4FF0FF3069074FF0000501D40AE0C4
:103C80006D1C45450DDA8542FADB19F8051000294F
:103C9000F6D106E06D1C8542FCDB19F80510002901
:103CA000F8D12E4404E019F8010B5A460F999047B9
:103CB0006D1EF8D2A5E00A200021CDE90801C5F368
:103CC000025002280DD001CFC117031E71F100036D
:103CD0000DDA4FF0000CD0EB0C006CEB01012D2342
:103CE00008E0FF1D27F00707F7E80201EDE72B05C5
:103CF00004D52B238DF8283001233BE0EB0739D086
:103D00002023F7E70A2000E010200021CDE9080178
:103D100007E01020002145F00405CDE908014FF02F
:103D20000808C5F3025002280FD001CF00214FF040
:103D3000000A2B071FD5702A0DD0DDE908C38CF0CF
:103D4000100C5CEA030C0CD015E0FF1D27F00707F0
:103D5000F7E80201EBE740228DF828204FF0010A36
:103D60000BE050EA010306D030238DF828308DF89F
:103D7000292002239A46582A04D024A20DF12009B2
:103D80000B9209E026A2F9E7DDE90823FCF727FA00
:103D90000B9B9B5C09F8013D50EA0102F4D1ADEBAD
:103DA000090020300890680701D44FF001080899F5
:103DB000884502DDA8EB010000E0002080460025D8
:103DC00006E00AA85A46405D0F9990476D1C761C84
:103DD0005545F6DB04E030205A460F999047761C93
:103DE000B8F10001A8F10108F5DC05E019F8010BB4
:103DF0005A460F999047761C0899481E089000294A
:103E0000F4DC641CC5E600000928010030313233BF
:103E10003435363738396162636465660000000006
:103E200030313233343536373839414243444546F0
:103E3000000000000A68531C0B60107070470000FF
:103E400070B503F049FD054607220F4903F074FCE5
:103E500000221146104601F0CDFA044601462846DC
:103E600003F04AFD284603F08DFC0422074928464A
:103E700003F0D6FB00220649284603F03AFD20460F
:103E8000BDE8704001F0DEBB9C91000898910008ED
:103E90007D76000801B581B004490198484300903F
:103EA000002801D0401EFAE70CBD0000A0860100EA
:103EB0002DE9F84390460E4605005CD0B8F80A009C
:103EC0002A2855D30120D8F8044000F044FBE189AA
:103ED00088424DD140F2046000F03DFB618A884287
:103EE00046D14FF4006000F036FB218A88423FD172
:103EF00040F6060000F02FFBA189884238D1E06926
:103F00000090D4F82610686818B1814203D10127C7
:103F100002E0002703E000270FB1012300E00023A7
:103F200004F116026946284603F0D2FDA08A00F08B
:103F300012FB01281CD1DFB1022000F00CFBA08293
:103F4000E069C4F826006868E0610622521E12F09B
:103F5000FF0204EB0200817D80F82010A154B15CC7
:103F60008175B15C8171F1D1AA69414628469047BB
:103F7000404601F067FBBDE8F88330B400280ED05E
:103F8000496882684468D1F81A3014401340A3424B
:103F900005D100238A1D30BC1A3103F099BD30BC15
:103FA000704700002DE9FC410E46054614460E21DF
:103FB000304601F069FB18B16FF00100BDE8FC81EB
:103FC0002946204600F0F1FB08B1234B28E04FF0D2
:103FD000704001F00BFA216800EA01074FF06040E1
:103FE00001F004FA874222D101208DF80000002060
:103FF0008DF801005E208DF80200206801F0F6F9CE
:10400000C0F306408DF80300206801F0EFF9000AC4
:104010008DF80400206801F0E9F98DF805006B4681
:1040200005F125023146284600F0FCF8C6E7A868ED
:1040300021686A6801400240914203D0E86838B1C3
:1040400005F10C0432462146284600F007F8B5E792
:104050006FF00300B2E700008C9100082DE9F05FDB
:104060000E46824600F1250B17464FF0FF385146A9
:10407000304600F09AFB08BB4FF0704001F0B6F9F3
:10408000316800EA01044FF0604001F0AFF984426A
:1040900014D09EB1306888B10121304600F09AF901
:1040A00000280DDBDFF8B49000EB800509EB8504F8
:1040B000A07B38B1012807D037B10BE06FF00900C1
:1040C000BDE8F09F0120A0733146504600F098F8FB
:1040D00080462FB3A07B4E46022802D0012808D08C
:1040E0003AE004F108035A463946504600F09AF87F
:1040F00031E000213C46207B012803D12468002CBC
:10410000F9D171B121890022032001F073F9040073
:1041100022D0394601F01AFA40B1204601F092FA55
:104120001AE03C46384601F006FBACB1062001F02F
:10413000C3F80100F1D00020C1E9000456F82500C1
:1041400008B905E010460268002AFBD1016001E0D1
:1041500046F82510002080464046B1E744BC0020C8
:104160002DE9F05F1746DDE90B9B884682461E4627
:1041700000222A21032001F03DF905003CD06C68A3
:104180000D9800F0E8F9A0820620401E10F0FF0014
:1041900004EB0001325C8A7519F8002081F82020B8
:1041A0003A5C225418F800208A71EED10A9800680F
:1041B000E061DBF80000C4F82600012000F0CBF934
:1041C000E0814FF4006000F0C6F9208240F2046004
:1041D00000F0C1F9608240F6060000F0BCF9A08151
:1041E000DAF818205046294690470446284601F040
:1041F00029FA2046BDE8F09F4FF0FF30FAE70000B3
:104200001FB50123064C021DCDE90213CDE90024A0
:1042100000F125031946A21FFFF7A2FF04B010BD4D
:10422000929100082DE9F0414D680E46074606249C
:10423000641E14F0FF0405EB0401185D2855105DA1
:104240008871F5D14FF4006000F085F9A8813146FE
:104250003846BA69BDE8F041104700002DE9F04149
:104260000024124FA04604EB840507EB8506F07B83
:10427000401CC0B2F073B17B022902D0012903D0E7
:104280000DE0F02802D20AE0022808D357F82500F2
:1042900018B100F04FF947F8258086F80E80641CAD
:1042A000E4B20A2CDFD3BDE8F081000044BC00205A
:1042B00070B5044640680D46808900F04CF9B0F5B1
:1042C000006F04D0A0F5006006380AD112E0214644
:1042D0002846FFF752FE6FF00D01204601F0D4F999
:1042E00018B1204601F0AEF90AE02946204600F058
:1042F0000DFB05E0224605F125012846FFF7D8FD14
:10430000002070BD10B50446082000F0E7FEA0B103
:104310000BA1C4E90701732184F82F10742184F8DC
:1043200030100C4961610C49A16104F12501016063
:10433000204600F015FE002010BD4FF0FF3010BDEC
:1043400041524D4A495348552E434F4D5F6C776952
:1043500070000000A53F0008E94F00082DE9FE436A
:10436000814600256846FCF799FDDDE9017100985A
:10437000884681B20322104601F03CF806000AD0BC
:104380000446791962896068FBF7FEFE608924683B
:104390000544002CF5D10E484FF00041C8F800103C
:1043A0004169090603D5802141610021816066B120
:1043B000D9F81020494630469047040002D03046D4
:1043C00001F040F92046BDE8FE834FF0FF30FAE7E8
:1043D000009002402DE9F35F4FF00A0A4FF0000110
:1043E000DFF824B10400D14652468C460F46D04631
:1043F0000E4611D04548057805EB85030BEB83008D
:10440000837B022B08D123684068834204D168B2C1
:10441000BDE8FC9F0A2A07D1DFF8ECE001EB81033D
:104420000EEB8300807B48B101EB810B0EEB8B0020
:10443000837B012B04D0022B18D026E04AB224E063
:104440001CB123684568AB4215D05EF82B3033B100
:10445000C57BB54219D34FFA81F82E4615E0C37BD0
:10446000634512D34FFA81FA9C460EE03CB12368B3
:104470004568AB4203D12548017048B2C8E7C07B0C
:10448000B84202D34FFA81F90746491CC9B20A293A
:10449000C0D34FF0FF310A2A02D10198C00731D0B2
:1044A000019880072ED44FF0000B0A2A01DAD5B20A
:1044B00019E0B9F10A0F02DA09F0FF0513E0BAF1C9
:1044C0000A0F02DA0AF0FF050DE0B8F10A0F19DA57
:1044D00008F0FF050C4F05EB850657F8260000F0A5
:1044E00029F847F826B0084805EB850200EB820062
:1044F000594680F80EB00CB122684260C17303487F
:10450000057084E7084683E744BC0020F8000020DB
:1045100070B5074D044640212846FFF793FA00285E
:10452000F9D0E1B22846FFF7EBFA204670BD000053
:104530000044004070B5044608E02546D5E9004037
:1045400001F080F82946062000F07EFE002CF4D110
:1045500070BD00BA704740BA70470A46032100F0A8
:10456000C3B800002DE9F0474468054688B08A4684
:10457000208800F03DFFC0F303204FEA8009C9F115
:1045800000018846284601F07FF800287ED128895E
:1045900004287BD3E068010E8DF80810010C8DF81B
:1045A0000910010A8DF80A108DF80B009DF808100B
:1045B0009DF809009DF80A30CDE900019DF80B2017
:1045C00041A103A8FFF7B2FAFDF712FD807903A914
:1045D0008006000EFDF712FC03A941A0FFF796FA32
:1045E00068680078082869D101264FF0704000F013
:1045F000FDFE216900EA01074FF0604000F0F6FE81
:10460000874200D10026514604F1100000F0CDF899
:10461000002853D1002E51D0288908284ED328468F
:1046200000F09FF890BB2221284601F02DF8D0B170
:104630004946284601F028F840BB2989002202207B
:1046400000F0D8FE060039D0294600F07FFFE8B917
:1046500041463046746801F017F8B8B9284600F0B2
:10466000F1FF354605E06FF02101284601F00CF816
:1046700060B96868E1682269E2602161002606701D
:104680004680208900F0B4FEC0B200E016E040F49D
:104690007F40FFF760FF208166814946284600F091
:1046A000F3FF58B90121CDE90061FF230022CDF8C5
:1046B00008A004F10C01284600F0F4F9284600F0A7
:1046C000C1FF08B0BDE8F08750696E673A202564E5
:1046D0002E25642E25642E25642020200000000055
:1046E0000A0D2573000000002DE9FC4791460E4697
:1046F000804600222421012000F07CFE050024D009
:104700006C68D8F804701C22267084F8019000268A
:10471000A680E6806868D8F804100830FBF734FDFE
:1047200066806989204600F016F860800120CDE996
:104730000060FF2307F10C020021284600F098F9E1
:104740002846BDE8FC4700F07DBFBDE8FC870A466F
:104750000B21FFF7C9BF10B500F05CFCC04380B26D
:1047600010BD70B500240546264613E069896868C7
:1047700000F050FC204481B201EB1044A87AC0073D
:1047800007D0C6F10100C6B2E0B2C4F3072141EA86
:1047900000242D68002DE9D126B1E0B2C4F3072131
:1047A00041EA0024E04380B270BD0068421C12D090
:1047B00088B191F82E2092070BD54A68824208D022
:1047C000896800EA01030A40934202D10143491C6F
:1047D00001D0002070470120704700002DE9F74FFD
:1047E00084B0022205984FF0140B0021868D1046EC
:1047F00000F000FE5FEA000A23D04348AAF80A60EE
:10480000AAF8086020F00305CAF80450049814229E
:1048100041682846FBF7B8FCE88800F0E9FDC0F3E2
:104820000C0700F40050029004980089143884B2F8
:10483000143EF01706EB5070C0F3CF00CDE9000630
:1048400051E04FF0FF3007B0BDE8F08F019884428F
:1048500001DC012000E000205FEA00090298C7F3B4
:104860000C0646EA000645D0204680B28046024645
:104870005B4605F11401049800F0B0FE58441FFA9D
:1048800080FB3046FFF767FEE88008F1140080B235
:10489000FFF761FE68800020688114212846FFF739
:1048A0005AFF6881B9F1000F05D004F1140081B2FC
:1048B000504600F019FF00221146022000F09AFD38
:1048C00006001CD0514600F02FFE05983146069A8E
:1048D00043699847304600F0B5FEA4EB080084B267
:1048E0000098384487B2002CB0D1504600F0AAFEA0
:1048F0000020A8E7009846F40056C000B5E75046EF
:1049000000F0A0FE9DE700000FBD00202DE9F0475C
:10491000456806468846288800F06AFD0421B1EB08
:10492000103F12D1288800F063FDC0F303204FF63A
:10493000FF7101EA8004688800F05AFD0146708921
:10494000A04202D33089884203D2304600F07AFE7A
:1049500051E0304600F0C8FEDFF80C9101274446D4
:1049600005F1100A204600F0DBFC58B1201D09D0EB
:10497000606838B1296981420FD021465046FFF75F
:1049800014FF50B91FB10027D9F8004000E0246897
:10499000444500D12468002CE4D1414605F10C00C7
:1049A000FFF703FF0028D0D14FF07049484600F0D0
:1049B0001DFDE9684FF0604A00EA0107504600F02B
:1049C00015FD8742C1D0002CBFD043F6FF70FFF722
:1049D000C2FDE988084205D0304600F0C9F806005B
:1049E00009D07568214C41463046C4E9018500F084
:1049F000D3FE18B134E00020BDE8F087288900F02C
:104A0000F7FCC0B2012813D006280CD0112841466B
:104A100005D005F11000FFF7C8FE70B11DE030466B
:104A200002F0BCFE1CE04146304601F0DFFA17E020
:104A300041463046FFF796FD12E0484600F0D6FCAE
:104A4000296900EA0107504600F0D0FC874204D0F3
:104A5000022130467560FFF780FD304600F0F2FD20
:104A600000206060A060C6E7AC000020FC000020D1
:104A70002DE9FE438146DDE90A541F461646884665
:104A8000104600F049FA50B10095CDE901403B468F
:104A900032464146484600F005F8BDE8FE836FF017
:104AA0000300FAE72DE9F05F1F46DDE90BA5DDF80D
:104AB00028B05FEA02088946064641D014213046F4
:104AC00000F0E2FD18B16FF00100BDE8F09F7468DE
:104AD000208900F08DFC67F31F20FFF73CFD20814B
:104AE00000F086FC20F0FF0040EA0A00FFF733FDEB
:104AF0002081D8F8000020611FFA8BF040F48A4032
:104B0000FFF729FD20803089FFF725FD174F6080D2
:104B10004FF0000AA4F806A03888FFF71CFDA0801B
:104B20003888401C3880B9F1000F02D0D9F8000055
:104B300010B9281D00D06868E060A4F80AA002E05F
:104B4000706800F11008A88D48B13189814206D9FA
:104B5000424629463046BDE8F05FFFF73FBE424679
:104B6000314628466B69BDE8F05F1847FC0000201D
:104B70002DE9F14F002700984468208800F038FCA8
:104B8000C0F3032005287DD1E08800F031FCC0048B
:104B90004FEA104A608800F02BFC0546208800F0A0
:104BA00027FCC0F30320404205EB80001FFA80F988
:104BB000009800F0C2FC594D0646288830440A2867
:104BC00009D93146204600F06DF900285AD02888CE
:104BD00030440A2856D8A8466D684FF0000B0DE007
:104BE0006869E168884207D1A8692169884203D1D0
:104BF000A889A188884204D02F462D68002DEFD1C6
:104C000006E02DB1E08800F0F3FBC00424D02EE0D4
:104C1000052000F051FB05000AD13146204600F086
:104C200041F9B04216DB052000F046FB050011D02B
:104C30002021FBF7C2FA0320E877D8F80410296096
:104C40001422214605F10800C8F80450FBF79CFA2D
:104C5000C5B10CE05D46FBE7E88900F0C9FBC00484
:104C600005D01422214605F10800FBF78DFAB8F8AB
:104C700000103144A8F80010E08800F0B9FB80046F
:104C800008D400E045E0A87F40F00100A8770AEBD7
:104C90000900A8832846009900F042F8002836D081
:104CA000A88B14221430A883686805F108014668AF
:104CB00030463468FBF768FAA88BFFF74CFC70802D
:104CC000A6F806B0A6F80AB014213046FFF743FD57
:104CD00070816FF0130AD5F8049009E05146204620
:104CE000666800F0D1FC2146484600F009FC3468B3
:104CF000002CF3D13946284600F08AF8484600F0E7
:104D00001CFCB8F80020101AA8F800004846BDE8BE
:104D1000F88F009800F096FC0020F8E708010020CA
:104D20002DE9F047D1F8049080460E460024012575
:104D3000B9F8020000F05CFB0746B9F8000000F08B
:104D400057FBC0F30320404207EB8007B9F8060089
:104D500000F04EFBC0047268030C00201060D819EC
:104D600093801FFA80FCA2F806C0D8F804101CE05B
:104D700048688788BB420DD211603CB1E788BB42CE
:104D800036D38088844533D8266001E0C8F80460B3
:104D900069B116E02CD0C1888B4229D31CB1E188BF
:104DA000B94200D00025016804460029E0D134B1A1
:104DB0002660E0889188884203D0002501E0C8F889
:104DC000046098F81E00C0070ED065B1D8F8040042
:104DD0004068808830B9116829B14868D1888288D4
:104DE000914203D000252846BDE8F0870246F2E74D
:104DF000304600F0A2FB014604480288511A0180A7
:104E0000304600F01FFC0020EEE700000801002003
:104E1000074A30B40B4654680168844201D151609E
:104E200000E01960014630BC052000F00DBA00001A
:104E3000080100202DE9F041446806468846606874
:104E40000025818891B900687060142206F108017C
:104E50006068FBF799F901212046FFF778FC2046AE
:104E600000F06BFB0546204600F0ECFB746809E09F
:104E7000606827460468384600F05FFB0544384602
:104E800000F0E0FB002CF3D141463046FFF7C0FFB5
:104E900003490888401B08802846BDE8F0810000CF
:104EA000080100202DE9F041DFF868800F46054633
:104EB0000026002213461446D8F804001AE041697F
:104EC000D5F80CC0614509D18169D5F810C061459C
:104ED00004D18189B5F804C0614507D0641C22B1B2
:104EE000C17F92F81FC0614500D80246016801B138
:104EF000034608460028E2D122B119461046FFF7C2
:104F000099FF0644BE4201DA012CD2DC3046BDE8EE
:104F1000F08100000801002070B505460E480468C5
:104F20000DE0204600F0FCF940B1A06829686268F5
:104F300001400240914201D1204670BD2468002CFE
:104F4000EFD1064C206820B100F0EAF908B12068E2
:104F500070BD002070BD0000AC000020B00000203B
:104F600070B5062100F8241F1C490A7842704A785F
:104F700082708A78C270CA7802710A79427149795E
:104F8000817140F2DC510181322181721449022287
:104F9000A1F5BF50FBF70EFD12490422A1F16000FC
:104FA000FBF7CAFC0F4D0024603D05EB0410012106
:104FB000FBF7E8FC641C042CF7DB0A4D0024203DC1
:104FC0004FF4400605EB04103146FBF717FD641C57
:104FD000022CF7DBBDE87040FBF790BF900000208B
:104FE0008C190020CC01002070B50C460025FBF781
:104FF00027FD064607E0628970196168FBF7C4F86F
:10500000608924680544002CF5D1A8B2FBF7C8FFDD
:10501000002070BD30B4002208E010F8013B1C02F3
:1050200010F8013B2343891E1A4489B20129F4D8A0
:1050300011B1007802EB002290B200EB1240010C9B
:1050400002D081B201EB104030BC80B2FFF783BACE
:10505000FEF736FBFDF7C0FFFCF74AFBFEF720FB2F
:10506000FCE770B500FB01F5A8B200F037F80400CA
:1050700002D02946FBF7A1F8204670BD002810D0C9
:1050800008494A6890420CD38A68904209D20022AB
:1050900000F8042CCA680838904200D2C86000F0BA
:1050A00051BB7047980000200A4810B50A4A20F00A
:1050B00003014FF4A04351600B8000244C800C711D
:1050C00001F5A040012490600471038043801470B6
:1050D000D16010BD6F25002098000020F0B5002899
:1050E00047D04FF6FC71C01C00EA01034FF4A04CFE
:1050F0000C2B01D20C2301E063453ED8DFF880E0A1
:10510000C3F5A044DEF80C50DEF80420A81A81B2E2
:1051100031E0501806796EBB0688761A083E9E422A
:1051200028D3048803F11406641A0127083CB4420A
:1051300010D30B4408339CB2131900261E71068845
:105140001E805980048007711988614503D0931C23
:10515000CC5200E00771A8420AD1DEE902310C7995
:1051600034B1994204D009881144CEF80C10F6E706
:105170000830F0BD515A8C42CBDC0020F0BD00005D
:10518000980000202DE9F04F4FF6FC72C91C114029
:105190004FF4A0490C2901D20C2101E0494510D857
:1051A000284E7468A0420ED3B26890420BD2A0F190
:1051B0000802131B15889BB2EF1A083FBFB2B94211
:1051C00003D94FF00000BDE8F08FFCD005EB040CD4
:1051D0001C4DB2469CF80480EE686D684FF0000BE1
:1051E00005F10205B8F1000F16D001F1140CBC4511
:1051F000E9D8194408318FB2E119B14201D2CAF895
:105200000C1081F804B014880C804B80178009883A
:105210004945D8D04F53D6E719440831BCF800703F
:1052200089B2664502D16618CAF80C600C4484F84D
:1052300004B027806380118022884A45C3D051532F
:10524000C1E7000098000020002905D0034A52F869
:1052500020300B6042F8201070470000807500205D
:10526000F0B50020401C80B20928FBD31048104C38
:1052700020F0030100200F4E0746273C06F11205DF
:1052800044F82070002209E054F820300B6044F804
:10529000201036F81030521C194492B235F81030F4
:1052A0009342F1D8401C80B20928E9D3F0BD000038
:1052B000A7750020549100080146092801D3002059
:1052C0007047044A52F821000028F9D0036842F8D8
:1052D00021307047807500202DE9F041044606A872
:1052E00090E8E00000206060A060E06084F82E009C
:1052F000E5610A4D287884F83100401C287020466A
:10530000276100F012F82046B04710B10020BDE838
:10531000F0816868206020466C60F8E7A8000020F3
:1053200090F82E0000F00100704770B51D4616463B
:10533000044600F015F83146204600F045F82946AD
:105340002046BDE8704000F007B8000001498860C1
:1053500070470000A800002001B10968C1607047D3
:1053600070B505460C460868696888421ED0144826
:1053700000680AE001686A68914205D10121C668A7
:1053800000F052FA304600E0C0680028F2D10D4823
:10539000006809E007D0016829B16A68914202D12A
:1053A00044B121680160C0680028F3D12CB12068A5
:1053B000686070BD4FF00001F4E74FF00000F7E7C0
:1053C000CC000020C800002001B10968816070474E
:1053D00090F82E10CA0708D141F0010180F82E1074
:1053E000890602D5011DFEF70BBF704700BA704752
:1053F00040BA70472DE9F04717460D46002630B1F8
:10540000012805D0022804D003284BD102E014263D
:1054100014360E364FF001094FF00008F7B3012F94
:105420005CD0022F5AD0032F3CD10820FFF744FF55
:10543000041E38D0A0191330277320F00300C4E9EC
:105440000080F61C26F00300A0F2DC5040422581CB
:10545000A84200DD284680B26081A4F80E9026465E
:105460002D1A40F2DC5A16E00820FFF725FFB0B1F4
:10547000077380F80D80C0F80080A9B23060018108
:10548000514500D35146418100F110024260A0F81D
:105490000E906D1A0646002DE6DC2BE005E0204656
:1054A00000F0D0F80020BDE8F08706F1130020F0EE
:1054B0000301E81C20F00300084480B2FFF70EFE51
:1054C000041EF0D0A019133020F003006060258185
:1054D0006581C4F8008084F80C800BE00720FFF79A
:1054E000EBFE041EDFD0C4F8048025816581C4F87A
:1054F00000802773A4F80E9084F80D802046D2E730
:1055000010B500280FD000290DD004E003890C89C4
:105510002344038110460268002AF7D102890B89CF
:105520001A440281016010BD10B50C46FFF7E8FF78
:105530002046BDE8104000F0FEB8002102E0491C02
:105540000068C9B20028FAD1084670472DE9F04733
:105550004FF000070C4605003E4604D01CB12889D8
:105560002189884203D26FF00900BDE8F0876FF00F
:10557000080968896189C01B891B884201DB88B2E0
:1055800000E080B28046606842468119686838440D
:10559000FAF7FAFD07EB080087B206EB080086B2BF
:1055A0006889B84201D12D6800276089B04201D8CE
:1055B000246800262CB160892189884201D12068A5
:1055C00030B93DB168892989884203D1286808B17A
:1055D0004846CAE7002CCCD10020C6E72DE9F047A9
:1055E000164689464FF00008002806D0B9F1000F92
:1055F00002D00027044620E00020BDE8F0872BB150
:105600006089984202D8181A83B215E06089C01ADE
:1056100085B2B54200D9354660682A46C11809EB03
:105620000700FAF7B1FD08EB05001FFA80F87819BA
:1056300087B2701B86B2002324680EB1002CDED125
:105640004046DAE770B5002815D00024C189491E0C
:105650000904090CC1810DD1017B056803290BD018
:1056600001290CD002290AD0FFF708FD641CE4B21E
:105670002800EBD1204670BD0146082001E001461C
:105680000720FFF7E1FDF1E710B541B138B100297E
:1056900007DA4A4293B242899A4223D302E00020B9
:1056A00010BD8BB2027B446832B1032A04D0022AB7
:1056B0000AD0012A08D015E0621A00F110034260F6
:1056C0009A4208D244600DE000290BDA42899A42DE
:1056D00008D3621A426042890A4442810289114415
:1056E0000181DCE7012010BD70B502898A4221D911
:1056F0008A1A0D46044605E0281A85B2208910440E
:10570000208124686089A842F6D3207B50B9608943
:10571000A84207D0A088001B284481B22046FFF78A
:1057200031FD044665812581206808B1FFF78AFFB5
:105730000020206070BD002802D0C189491CC181B1
:105740007047000030B5134C018862681144931C07
:1057500088420DD00D795DB9A568A94208D0E568E9
:105760008D4200D1E0600D8805800988851ACD52F0
:105770004188114481420BD00D79002D08D1E56894
:10578000854200D1E16004880C800088891AC152EA
:1057900030BD0000980000202DE9F04747688046A2
:1057A00000263889FFF724FEDFF850A000F0FF093B
:1057B0000025DAF800401CE0217C494516D1D4F8D8
:1057C00014C0BCF1000F11D007F10C034246214672
:1057D000A069E04750B14FF00008012635B1E068FC
:1057E000E860DAF80010E160CAF800402546E46895
:1057F0000EB9002CE0D13046BDE8F087B40000209F
:1058000010B502F069F804460722054901F008FFC7
:105810002046BDE810400022024902F06AB80000AC
:1058200098910008D97900082DE9FF5F0446007CB3
:105830008B460A2832D0D4F858A0D4F82490BCB3B0
:1058400020680390201D00D060680290268B278C72
:1058500021461948D4F81480D4F8905001F062F829
:10586000A06F08B101F031FD606F08B101F02DFDAE
:1058700021460220FFF7E8FC1DB16FF0040140460D
:10588000A847BBF1000F07D002AB03AA4946504618
:10589000CDE9006701F0BDFCBDE8FF9F0648214649
:1058A000001D01F03FF821460220FFF7CDFCF3E791
:1058B000FFE70020C5E70000CC000020C161704771
:1058C0006FF00400704700002DE9F0410646022009
:1058D000FFF7F2FC3A4D040037D100231A46AC68BA
:1058E000A86906E0016B611A994201D30B46024692
:1058F000C0680028F6D11AB101211046FFF794FFC5
:105900000220FFF7D9FC04001FD17F272346D5F8DA
:1059100008C068690DE0417CB14209D8B94207D896
:10592000026BACEB0202A24202D3144603460F46BE
:10593000C0680028EFD11BB101211846FFF774FFA2
:105940000220FFF7B9FC040037D0A021FAF735FC9C
:10595000402004F8110F40F66830A4F85D000023E1
:10596000A4F85F30A4F81700A4F8190004F8073C65
:10597000FF2004F8060C4FF40670A4F82700062058
:10598000A4F83700A4F83330A4F83500C01FA4F8F9
:1059900025000120A4F84100E41D00F0C3FDE064EF
:1059A000206460632065A868A06123770548E066ED
:1059B0000548E06784F88530183C2046BDE8F08152
:1059C000B80000203971000800DD6D0041617047AA
:1059D0002DE9F0410546007C0C4618B16FF00C0033
:1059E000BDE8F08112B900F06DFD024626486FF067
:1059F0000A0300680BE0018B914207D1A0B3016854
:105A000091B38CB326687EB3B1422DD0C068002814
:105A1000F1D11D4E103E70690BE0018B914207D110
:105A200010B3016801B3FCB12768EFB1B9421BD0D4
:105A3000C0680028F1D1F0680BE0018B914207D1DA
:105A400090B1076887B17CB1216869B18F420BD0F2
:105A5000C0680028F1D1B06909E0018B914205D1FD
:105A600001682768B94201D11846B9E7C068002823
:105A7000F3D114B1206800B128602A83F068E8608F
:105A80000020F560ACE70000C800002010B50C460F
:105A9000FCF7AEFA807919A100EB8000C0B2FCF7E8
:105AA000ADF91F20FCF77CFB3C2328224FF49B71AF
:105AB000B420FCF77BFA4FF47840FCF771FB3C23F1
:105AC0002822E621B420FCF771FA4FF6E070FCF7CB
:105AD00067FB3C2328229621B420FCF767FA4FF499
